{
  "_format": "hh-sol-artifact-1",
  "contractName": "Store",
  "sourceName": "contracts/Store.sol",
  "abi": [
    {
      "anonymous": false,
      "inputs": [
        {
          "indexed": true,
          "internalType": "address",
          "name": "previousOwner",
          "type": "address"
        },
        {
          "indexed": true,
          "internalType": "address",
          "name": "newOwner",
          "type": "address"
        }
      ],
      "name": "OwnershipTransferred",
      "type": "event"
    },
    {
      "anonymous": false,
      "inputs": [
        {
          "indexed": false,
          "internalType": "uint256",
          "name": "id",
          "type": "uint256"
        },
        {
          "indexed": false,
          "internalType": "string",
          "name": "name",
          "type": "string"
        },
        {
          "indexed": false,
          "internalType": "uint256",
          "name": "quantity",
          "type": "uint256"
        }
      ],
      "name": "ProductAdded",
      "type": "event"
    },
    {
      "anonymous": false,
      "inputs": [
        {
          "indexed": false,
          "internalType": "uint256",
          "name": "id",
          "type": "uint256"
        },
        {
          "indexed": false,
          "internalType": "address",
          "name": "buyer",
          "type": "address"
        }
      ],
      "name": "ProductBought",
      "type": "event"
    },
    {
      "anonymous": false,
      "inputs": [
        {
          "indexed": false,
          "internalType": "uint256",
          "name": "id",
          "type": "uint256"
        }
      ],
      "name": "ProductRefund",
      "type": "event"
    },
    {
      "anonymous": false,
      "inputs": [
        {
          "indexed": false,
          "internalType": "uint256",
          "name": "id",
          "type": "uint256"
        },
        {
          "indexed": false,
          "internalType": "string",
          "name": "name",
          "type": "string"
        },
        {
          "indexed": false,
          "internalType": "uint256",
          "name": "quantity",
          "type": "uint256"
        }
      ],
      "name": "ProductUpdated",
      "type": "event"
    },
    {
      "inputs": [
        {
          "internalType": "string",
          "name": "name",
          "type": "string"
        },
        {
          "internalType": "uint16",
          "name": "quantity",
          "type": "uint16"
        }
      ],
      "name": "addProduct",
      "outputs": [],
      "stateMutability": "nonpayable",
      "type": "function"
    },
    {
      "inputs": [
        {
          "internalType": "uint256",
          "name": "id",
          "type": "uint256"
        }
      ],
      "name": "buyProduct",
      "outputs": [],
      "stateMutability": "nonpayable",
      "type": "function"
    },
    {
      "inputs": [],
      "name": "getAllProducts",
      "outputs": [
        {
          "components": [
            {
              "internalType": "string",
              "name": "name",
              "type": "string"
            },
            {
              "internalType": "uint16",
              "name": "quantity",
              "type": "uint16"
            }
          ],
          "internalType": "struct StoreBase.Product[]",
          "name": "",
          "type": "tuple[]"
        }
      ],
      "stateMutability": "view",
      "type": "function"
    },
    {
      "inputs": [
        {
          "internalType": "uint256",
          "name": "id",
          "type": "uint256"
        }
      ],
      "name": "getProductBuyersById",
      "outputs": [
        {
          "internalType": "address[]",
          "name": "",
          "type": "address[]"
        }
      ],
      "stateMutability": "view",
      "type": "function"
    },
    {
      "inputs": [
        {
          "internalType": "uint256",
          "name": "id",
          "type": "uint256"
        }
      ],
      "name": "getProductById",
      "outputs": [
        {
          "components": [
            {
              "internalType": "string",
              "name": "name",
              "type": "string"
            },
            {
              "internalType": "uint16",
              "name": "quantity",
              "type": "uint16"
            }
          ],
          "internalType": "struct StoreBase.Product",
          "name": "",
          "type": "tuple"
        }
      ],
      "stateMutability": "view",
      "type": "function"
    },
    {
      "inputs": [
        {
          "internalType": "string",
          "name": "name",
          "type": "string"
        }
      ],
      "name": "getProductByName",
      "outputs": [
        {
          "components": [
            {
              "internalType": "string",
              "name": "name",
              "type": "string"
            },
            {
              "internalType": "uint16",
              "name": "quantity",
              "type": "uint16"
            }
          ],
          "internalType": "struct StoreBase.Product",
          "name": "",
          "type": "tuple"
        }
      ],
      "stateMutability": "view",
      "type": "function"
    },
    {
      "inputs": [],
      "name": "getRefundPolicyNumber",
      "outputs": [
        {
          "internalType": "uint8",
          "name": "",
          "type": "uint8"
        }
      ],
      "stateMutability": "view",
      "type": "function"
    },
    {
      "inputs": [],
      "name": "owner",
      "outputs": [
        {
          "internalType": "address",
          "name": "",
          "type": "address"
        }
      ],
      "stateMutability": "view",
      "type": "function"
    },
    {
      "inputs": [
        {
          "internalType": "uint256",
          "name": "",
          "type": "uint256"
        }
      ],
      "name": "products",
      "outputs": [
        {
          "internalType": "string",
          "name": "name",
          "type": "string"
        },
        {
          "internalType": "uint16",
          "name": "quantity",
          "type": "uint16"
        }
      ],
      "stateMutability": "view",
      "type": "function"
    },
    {
      "inputs": [
        {
          "internalType": "uint256",
          "name": "id",
          "type": "uint256"
        }
      ],
      "name": "refundProduct",
      "outputs": [],
      "stateMutability": "nonpayable",
      "type": "function"
    },
    {
      "inputs": [],
      "name": "renounceOwnership",
      "outputs": [],
      "stateMutability": "nonpayable",
      "type": "function"
    },
    {
      "inputs": [
        {
          "internalType": "uint8",
          "name": "blockNumber",
          "type": "uint8"
        }
      ],
      "name": "setRefundPolicyNumber",
      "outputs": [],
      "stateMutability": "nonpayable",
      "type": "function"
    },
    {
      "inputs": [
        {
          "internalType": "address",
          "name": "newOwner",
          "type": "address"
        }
      ],
      "name": "transferOwnership",
      "outputs": [],
      "stateMutability": "nonpayable",
      "type": "function"
    },
    {
      "inputs": [
        {
          "internalType": "uint256",
          "name": "id",
          "type": "uint256"
        },
        {
          "internalType": "uint16",
          "name": "quantity",
          "type": "uint16"
        }
      ],
      "name": "updateProductQuantity",
      "outputs": [],
      "stateMutability": "nonpayable",
      "type": "function"
    }
  ],
  "bytecode": "0x60806040526064600060146101000a81548160ff021916908360ff16021790555034801561002c57600080fd5b50600061003d6100e060201b60201c565b9050806000806101000a81548173ffffffffffffffffffffffffffffffffffffffff021916908373ffffffffffffffffffffffffffffffffffffffff1602179055508073ffffffffffffffffffffffffffffffffffffffff16600073ffffffffffffffffffffffffffffffffffffffff167f8be0079c531659141344cd1fd0a4f28419497f9722a3daafe3b4186f6b6457e060405160405180910390a3506100e8565b600033905090565b6126da806100f76000396000f3fe608060405234801561001057600080fd5b50600436106100ea5760003560e01c80638642269e1161008c578063d4290f8311610066578063d4290f8314610224578063ea25877214610254578063f2fde38b14610284578063fb8fc184146102a0576100ea565b80638642269e146101ce5780638da5cb5b146101ea578063c750fc5414610208576100ea565b80636a1d1959116100c85780636a1d195914610159578063715018a6146101775780637274d680146101815780637acc0b201461019d576100ea565b806302ee3a52146100ef5780633f70c2b41461010d57806343b726481461013d575b600080fd5b6100f76102bc565b60405161010491906120de565b60405180910390f35b61012760048036038101906101229190611a5f565b6103cd565b6040516101349190612230565b60405180910390f35b61015760048036038101906101529190611a0b565b610532565b005b61016161079e565b60405161016e9190612312565b60405180910390f35b61017f6107b4565b005b61019b60048036038101906101969190611a5f565b6108ee565b005b6101b760048036038101906101b29190611a5f565b6109d0565b6040516101c5929190612100565b60405180910390f35b6101e860048036038101906101e39190611a5f565b610a9a565b005b6101f2610cad565b6040516101ff91906120a1565b60405180910390f35b610222600480360381019061021d9190611a88565b610cd6565b005b61023e600480360381019061023991906119ca565b610e48565b60405161024b9190612230565b60405180910390f35b61026e60048036038101906102699190611a5f565b61103f565b60405161027b91906120bc565b60405180910390f35b61029e600480360381019061029991906119a1565b61112b565b005b6102ba60048036038101906102b59190611ac4565b6112d4565b005b60606001805480602002602001604051908101604052809291908181526020016000905b828210156103c4578382906000526020600020906002020160405180604001604052908160008201805461031390612578565b80601f016020809104026020016040519081016040528092919081815260200182805461033f90612578565b801561038c5780601f106103615761010080835404028352916020019161038c565b820191906000526020600020905b81548152906001019060200180831161036f57829003601f168201915b505050505081526020016001820160009054906101000a900461ffff1661ffff1661ffff1681525050815260200190600101906102e0565b50505050905090565b6103d5611824565b8160018054905080821061041e576040517f08c379a000000000000000000000000000000000000000000000000000000000815260040161041590612150565b60405180910390fd5b60006001858154811061045a577f4e487b7100000000000000000000000000000000000000000000000000000000600052603260045260246000fd5b906000526020600020906002020190508060405180604001604052908160008201805461048690612578565b80601f01602080910402602001604051908101604052809291908181526020018280546104b290612578565b80156104ff5780601f106104d4576101008083540402835291602001916104ff565b820191906000526020600020905b8154815290600101906020018083116104e257829003601f168201915b505050505081526020016001820160009054906101000a900461ffff1661ffff1661ffff16815250509350505050919050565b61053a61136e565b73ffffffffffffffffffffffffffffffffffffffff16610558610cad565b73ffffffffffffffffffffffffffffffffffffffff16146105ae576040517f08c379a00000000000000000000000000000000000000000000000000000000081526004016105a590612190565b60405180910390fd5b8060008161ffff16116105f6576040517f08c379a00000000000000000000000000000000000000000000000000000000081526004016105ed906121b0565b60405180910390fd5b8260008151141561063c576040517f08c379a000000000000000000000000000000000000000000000000000000000815260040161063390612170565b60405180910390fd5b60008060038660405161064f919061208a565b9081526020016040518091039020600001805461066b90612578565b905011905060006002600061067f88611376565b81526020019081526020016000205490508115610742576000600182815481106106d2577f4e487b7100000000000000000000000000000000000000000000000000000000600052603260045260246000fd5b906000526020600020906002020190506106ec82876113a6565b7ff9b1d9170fbe32752353e00d62e5276b143166c75aa974030dddfac2895601fe82826000018360010160009054906101000a900461ffff16604051610734939291906122d4565b60405180910390a150610796565b600180549050905061075a6001805490508787611410565b7fcca07c742c5274e8b72111ba69566aa4442450bfc50bd897ea38d0170d1accfc81878760405161078d93929190612296565b60405180910390a15b505050505050565b60008060149054906101000a900460ff16905090565b6107bc61136e565b73ffffffffffffffffffffffffffffffffffffffff166107da610cad565b73ffffffffffffffffffffffffffffffffffffffff1614610830576040517f08c379a000000000000000000000000000000000000000000000000000000000815260040161082790612190565b60405180910390fd5b600073ffffffffffffffffffffffffffffffffffffffff1660008054906101000a900473ffffffffffffffffffffffffffffffffffffffff1673ffffffffffffffffffffffffffffffffffffffff167f8be0079c531659141344cd1fd0a4f28419497f9722a3daafe3b4186f6b6457e060405160405180910390a360008060006101000a81548173ffffffffffffffffffffffffffffffffffffffff021916908373ffffffffffffffffffffffffffffffffffffffff160217905550565b80600180549050808210610937576040517f08c379a000000000000000000000000000000000000000000000000000000000815260040161092e90612150565b60405180910390fd5b60003390506109468482611529565b600060018581548110610982577f4e487b7100000000000000000000000000000000000000000000000000000000600052603260045260246000fd5b906000526020600020906002020190507f21b68a0c4ac2beb4bede4a50169cdeeeaff19097e416463da0524864702ffe44856040516109c19190612252565b60405180910390a15050505050565b600181815481106109e057600080fd5b9060005260206000209060020201600091509050806000018054610a0390612578565b80601f0160208091040260200160405190810160405280929190818152602001828054610a2f90612578565b8015610a7c5780601f10610a5157610100808354040283529160200191610a7c565b820191906000526020600020905b815481529060010190602001808311610a5f57829003601f168201915b5050505050908060010160009054906101000a900461ffff16905082565b60018181548110610ad4577f4e487b7100000000000000000000000000000000000000000000000000000000600052603260045260246000fd5b906000526020600020906002020160010160009054906101000a900461ffff1660008161ffff1611610b3b576040517f08c379a0000000000000000000000000000000000000000000000000000000008152600401610b32906121b0565b60405180910390fd5b81600180549050808210610b84576040517f08c379a0000000000000000000000000000000000000000000000000000000008152600401610b7b90612150565b60405180910390fd5b6000339050600060018681548110610bc5577f4e487b7100000000000000000000000000000000000000000000000000000000600052603260045260246000fd5b906000526020600020906002020190506000610be187846116ba565b90508015610c24576040517f08c379a0000000000000000000000000000000000000000000000000000000008152600401610c1b906121f0565b60405180910390fd5b610c2e8784611717565b81600101600081819054906101000a900461ffff1680929190610c509061254e565b91906101000a81548161ffff021916908361ffff160217905550507f60751e87ab3312710ec7d4da85ea804d0813ca2cb843a75cc23c672e1bd3954a8784604051610c9c92919061226d565b60405180910390a150505050505050565b60008060009054906101000a900473ffffffffffffffffffffffffffffffffffffffff16905090565b610cde61136e565b73ffffffffffffffffffffffffffffffffffffffff16610cfc610cad565b73ffffffffffffffffffffffffffffffffffffffff1614610d52576040517f08c379a0000000000000000000000000000000000000000000000000000000008152600401610d4990612190565b60405180910390fd5b81600180549050808210610d9b576040517f08c379a0000000000000000000000000000000000000000000000000000000008152600401610d9290612150565b60405180910390fd5b610da584846113a6565b600060018581548110610de1577f4e487b7100000000000000000000000000000000000000000000000000000000600052603260045260246000fd5b906000526020600020906002020190507ff9b1d9170fbe32752353e00d62e5276b143166c75aa974030dddfac2895601fe85826000018360010160009054906101000a900461ffff16604051610e39939291906122d4565b60405180910390a15050505050565b610e50611824565b81600081511415610e96576040517f08c379a0000000000000000000000000000000000000000000000000000000008152600401610e8d90612170565b60405180910390fd5b600080600385604051610ea9919061208a565b90815260200160405180910390206000018054610ec590612578565b905011905080610f0a576040517f08c379a0000000000000000000000000000000000000000000000000000000008152600401610f0190612150565b60405180910390fd5b600060026000610f1987611376565b8152602001908152602001600020549050600060018281548110610f66577f4e487b7100000000000000000000000000000000000000000000000000000000600052603260045260246000fd5b9060005260206000209060020201905080604051806040016040529081600082018054610f9290612578565b80601f0160208091040260200160405190810160405280929190818152602001828054610fbe90612578565b801561100b5780601f10610fe05761010080835404028352916020019161100b565b820191906000526020600020905b815481529060010190602001808311610fee57829003601f168201915b505050505081526020016001820160009054906101000a900461ffff1661ffff1661ffff1681525050945050505050919050565b60608160018054905080821061108a576040517f08c379a000000000000000000000000000000000000000000000000000000000815260040161108190612150565b60405180910390fd5b6005600085815260200190815260200160002080548060200260200160405190810160405280929190818152602001828054801561111d57602002820191906000526020600020905b8160009054906101000a900473ffffffffffffffffffffffffffffffffffffffff1673ffffffffffffffffffffffffffffffffffffffff16815260200190600101908083116110d3575b505050505092505050919050565b61113361136e565b73ffffffffffffffffffffffffffffffffffffffff16611151610cad565b73ffffffffffffffffffffffffffffffffffffffff16146111a7576040517f08c379a000000000000000000000000000000000000000000000000000000000815260040161119e90612190565b60405180910390fd5b600073ffffffffffffffffffffffffffffffffffffffff168173ffffffffffffffffffffffffffffffffffffffff161415611217576040517f08c379a000000000000000000000000000000000000000000000000000000000815260040161120e90612130565b60405180910390fd5b8073ffffffffffffffffffffffffffffffffffffffff1660008054906101000a900473ffffffffffffffffffffffffffffffffffffffff1673ffffffffffffffffffffffffffffffffffffffff167f8be0079c531659141344cd1fd0a4f28419497f9722a3daafe3b4186f6b6457e060405160405180910390a3806000806101000a81548173ffffffffffffffffffffffffffffffffffffffff021916908373ffffffffffffffffffffffffffffffffffffffff16021790555050565b6112dc61136e565b73ffffffffffffffffffffffffffffffffffffffff166112fa610cad565b73ffffffffffffffffffffffffffffffffffffffff1614611350576040517f08c379a000000000000000000000000000000000000000000000000000000000815260040161134790612190565b60405180910390fd5b80600060146101000a81548160ff021916908360ff16021790555050565b600033905090565b600081604051602001611389919061208a565b604051602081830303815290604052805190602001209050919050565b80600183815481106113e1577f4e487b7100000000000000000000000000000000000000000000000000000000600052603260045260246000fd5b906000526020600020906002020160010160006101000a81548161ffff021916908361ffff1602179055505050565b600060405180604001604052808481526020018361ffff168152509050600061143884611376565b90508460026000838152602001908152602001600020819055506001829080600181540180825580915050600190039060005260206000209060020201600090919091909150600082015181600001908051906020019061149a929190611842565b5060208201518160010160006101000a81548161ffff021916908361ffff1602179055505050816003856040516114d1919061208a565b908152602001604051809103902060008201518160000190805190602001906114fb929190611842565b5060208201518160010160006101000a81548161ffff021916908361ffff1602179055509050505050505050565b600080600460008473ffffffffffffffffffffffffffffffffffffffff1673ffffffffffffffffffffffffffffffffffffffff1681526020019081526020016000206000858152602001908152602001600020541415905060006115dc600460008573ffffffffffffffffffffffffffffffffffffffff1673ffffffffffffffffffffffffffffffffffffffff1681526020019081526020016000206000868152602001908152602001600020546117ea565b90508061161e576040517f08c379a000000000000000000000000000000000000000000000000000000000815260040161161590612210565b60405180910390fd5b8161165e576040517f08c379a0000000000000000000000000000000000000000000000000000000008152600401611655906121d0565b60405180910390fd5b6000600460008573ffffffffffffffffffffffffffffffffffffffff1673ffffffffffffffffffffffffffffffffffffffff16815260200190815260200160002060008681526020019081526020016000208190555050505050565b600080600460008473ffffffffffffffffffffffffffffffffffffffff1673ffffffffffffffffffffffffffffffffffffffff16815260200190815260200160002060008581526020019081526020016000205411905092915050565b600043905080600460008473ffffffffffffffffffffffffffffffffffffffff1673ffffffffffffffffffffffffffffffffffffffff16815260200190815260200160002060008581526020019081526020016000208190555060056000848152602001908152602001600020829080600181540180825580915050600190039060005260206000200160009091909190916101000a81548173ffffffffffffffffffffffffffffffffffffffff021916908373ffffffffffffffffffffffffffffffffffffffff160217905550505050565b600043600060149054906101000a900460ff1660ff168361180b919061244d565b111561181a576001905061181f565b600090505b919050565b604051806040016040528060608152602001600061ffff1681525090565b82805461184e90612578565b90600052602060002090601f01602090048101928261187057600085556118b7565b82601f1061188957805160ff19168380011785556118b7565b828001600101855582156118b7579182015b828111156118b657825182559160200191906001019061189b565b5b5090506118c491906118c8565b5090565b5b808211156118e15760008160009055506001016118c9565b5090565b60006118f86118f38461235e565b61232d565b90508281526020810184848401111561191057600080fd5b61191b84828561250c565b509392505050565b60008135905061193281612648565b92915050565b600082601f83011261194957600080fd5b81356119598482602086016118e5565b91505092915050565b6000813590506119718161265f565b92915050565b60008135905061198681612676565b92915050565b60008135905061199b8161268d565b92915050565b6000602082840312156119b357600080fd5b60006119c184828501611923565b91505092915050565b6000602082840312156119dc57600080fd5b600082013567ffffffffffffffff8111156119f657600080fd5b611a0284828501611938565b91505092915050565b60008060408385031215611a1e57600080fd5b600083013567ffffffffffffffff811115611a3857600080fd5b611a4485828601611938565b9250506020611a5585828601611962565b9150509250929050565b600060208284031215611a7157600080fd5b6000611a7f84828501611977565b91505092915050565b60008060408385031215611a9b57600080fd5b6000611aa985828601611977565b9250506020611aba85828601611962565b9150509250929050565b600060208284031215611ad657600080fd5b6000611ae48482850161198c565b91505092915050565b6000611af98383611b19565b60208301905092915050565b6000611b118383611fc5565b905092915050565b611b22816124a3565b82525050565b611b31816124a3565b82525050565b6000611b42826123c3565b611b4c81856123fe565b9350611b578361238e565b8060005b83811015611b88578151611b6f8882611aed565b9750611b7a836123e4565b925050600181019050611b5b565b5085935050505092915050565b6000611ba0826123ce565b611baa818561240f565b935083602082028501611bbc8561239e565b8060005b85811015611bf85784840389528151611bd98582611b05565b9450611be4836123f1565b925060208a01995050600181019050611bc0565b50829750879550505050505092915050565b6000611c15826123d9565b611c1f8185612420565b9350611c2f81856020860161251b565b611c3881612637565b840191505092915050565b6000611c4e826123d9565b611c588185612431565b9350611c6881856020860161251b565b611c7181612637565b840191505092915050565b6000611c87826123d9565b611c918185612442565b9350611ca181856020860161251b565b80840191505092915050565b60008154611cba81612578565b611cc48186612431565b94506001821660008114611cdf5760018114611cf157611d24565b60ff1983168652602086019350611d24565b611cfa856123ae565b60005b83811015611d1c57815481890152600182019150602081019050611cfd565b808801955050505b50505092915050565b6000611d3a602683612431565b91507f4f776e61626c653a206e6577206f776e657220697320746865207a65726f206160008301527f64647265737300000000000000000000000000000000000000000000000000006020830152604082019050919050565b6000611da0601c83612431565b91507f546869732070726f6475637420646f6573206e6f7420657869737421000000006000830152602082019050919050565b6000611de0601983612431565b91507f596f75206861766520746f20656e7465722061206e616d6521000000000000006000830152602082019050919050565b6000611e20602083612431565b91507f4f776e61626c653a2063616c6c6572206973206e6f7420746865206f776e65726000830152602082019050919050565b6000611e60601483612431565b91507f5175616e746974792063616e27742062652030210000000000000000000000006000830152602082019050919050565b6000611ea0603e83612431565b91507f596f7527766520616c72656164792072657475726e656420796f75722070726f60008301527f64756374206f72206469646e2774206576656e20626f756768742069742e00006020830152604082019050919050565b6000611f06602f83612431565b91507f596f752063616e6e6f7420627579207468652073616d652070726f647563742060008301527f6d6f7265207468616e206f6e63652100000000000000000000000000000000006020830152604082019050919050565b6000611f6c602f83612431565b91507f536f7272792c20796f7572207265717565737420666f7220726566756e64206860008301527f6173206265656e2064656e6965642e00000000000000000000000000000000006020830152604082019050919050565b60006040830160008301518482036000860152611fe28282611c0a565b9150506020830151611ff7602086018261203f565b508091505092915050565b6000604083016000830151848203600086015261201f8282611c0a565b9150506020830151612034602086018261203f565b508091505092915050565b612048816124b5565b82525050565b612057816124b5565b82525050565b612066816124fa565b82525050565b612075816124e3565b82525050565b612084816124ed565b82525050565b60006120968284611c7c565b915081905092915050565b60006020820190506120b66000830184611b28565b92915050565b600060208201905081810360008301526120d68184611b37565b905092915050565b600060208201905081810360008301526120f88184611b95565b905092915050565b6000604082019050818103600083015261211a8185611c43565b9050612129602083018461204e565b9392505050565b6000602082019050818103600083015261214981611d2d565b9050919050565b6000602082019050818103600083015261216981611d93565b9050919050565b6000602082019050818103600083015261218981611dd3565b9050919050565b600060208201905081810360008301526121a981611e13565b9050919050565b600060208201905081810360008301526121c981611e53565b9050919050565b600060208201905081810360008301526121e981611e93565b9050919050565b6000602082019050818103600083015261220981611ef9565b9050919050565b6000602082019050818103600083015261222981611f5f565b9050919050565b6000602082019050818103600083015261224a8184612002565b905092915050565b6000602082019050612267600083018461206c565b92915050565b6000604082019050612282600083018561206c565b61228f6020830184611b28565b9392505050565b60006060820190506122ab600083018661206c565b81810360208301526122bd8185611c43565b90506122cc604083018461205d565b949350505050565b60006060820190506122e9600083018661206c565b81810360208301526122fb8185611cad565b905061230a604083018461205d565b949350505050565b6000602082019050612327600083018461207b565b92915050565b6000604051905081810181811067ffffffffffffffff8211171561235457612353612608565b5b8060405250919050565b600067ffffffffffffffff82111561237957612378612608565b5b601f19601f8301169050602081019050919050565b6000819050602082019050919050565b6000819050602082019050919050565b60008190508160005260206000209050919050565b600081519050919050565b600081519050919050565b600081519050919050565b6000602082019050919050565b6000602082019050919050565b600082825260208201905092915050565b600082825260208201905092915050565b600082825260208201905092915050565b600082825260208201905092915050565b600081905092915050565b6000612458826124e3565b9150612463836124e3565b9250827fffffffffffffffffffffffffffffffffffffffffffffffffffffffffffffffff03821115612498576124976125aa565b5b828201905092915050565b60006124ae826124c3565b9050919050565b600061ffff82169050919050565b600073ffffffffffffffffffffffffffffffffffffffff82169050919050565b6000819050919050565b600060ff82169050919050565b6000612505826124b5565b9050919050565b82818337600083830152505050565b60005b8381101561253957808201518184015260208101905061251e565b83811115612548576000848401525b50505050565b6000612559826124b5565b9150600082141561256d5761256c6125aa565b5b600182039050919050565b6000600282049050600182168061259057607f821691505b602082108114156125a4576125a36125d9565b5b50919050565b7f4e487b7100000000000000000000000000000000000000000000000000000000600052601160045260246000fd5b7f4e487b7100000000000000000000000000000000000000000000000000000000600052602260045260246000fd5b7f4e487b7100000000000000000000000000000000000000000000000000000000600052604160045260246000fd5b6000601f19601f8301169050919050565b612651816124a3565b811461265c57600080fd5b50565b612668816124b5565b811461267357600080fd5b50565b61267f816124e3565b811461268a57600080fd5b50565b612696816124ed565b81146126a157600080fd5b5056fea26469706673582212203def3922c0226fb52db0ab6ddade0e0b1c69d310621ece0a18c08d685d504ebe64736f6c63430008000033",
  "linkReferences": {},
  "deployedLinkReferences": {}
}